S025000078656E6F6C75785F756E6976657273655F636F6E74726F6C5F756E69742E737265639D
S11300000C942A000C9434000C9434000C943400A6
S11300100C9434000C9434000C9434000C9434008C
S11300200C9434000C9434000C9434000C9434007C
S11300300C9434000C9434000C9434000C9434006C
S11300400C9434000C9434000C9434000C9434005C
S11300500C94340011241FBECFE5D8E0DEBFCDBF21
S11300600E9436000C943F000C9400008FEF87BB75
S113007011BA18BA88BB000018BA0000FBCFF89474
S1050080FFCFAC
S9030000FC
