S027000078656E6F6C75785F636F6E6E6563746F6D655F636F6E74726F6C5F756E69742E73726563E1
S11300000C942A000C9434000C9434000C943400A6
S11300100C9434000C9434000C9434000C9434008C
S11300200C9434000C9434000C9434000C9434007C
S11300300C9434000C9434000C9434000C9434006C
S11300400C9434000C9434000C9434000C9434005C
S11300500C94340011241FBECFE5D8E0DEBFCDBF21
S11300600E94C3000C9411010C940000882331F009
S1130070813041F0823051F090E001C092E0833051
S113008049F001C096E0843039F001C091E0853038
S113009029F005C095E003C093E001C097E0662312
S11300A031F0613041F0623051F050E001C052E073
S11300B0633049F001C056E0643039F001C051E0CA
S11300C0653029F005C055E003C053E001C057E096
S11300D04A3F31F04D3F41F04F3F51F080E001C0C5
S11300E083E0413049F001C081E0433039F001C080
S11300F082E0463029F005C086E003C085E001C0F7
S113010087E0222331F0213041F0223051F030E0F9
S113011001C03DE0233049F001C035E0243049F00E
S113012001C03FE0253049F001C037E0263039F006
S113013001C03BE0273029F005C033E003C030E0C4
S113014001C031E015BA25B3822B85BB25B340E14C
S1130150949FC0011124822B85BB38BB52BB89EF0D
S113016090E00197F1F700C00000AB9A89EF90E0AE
S11301700197F1F700C00000AB9815BA18BA12BA8B
S113018080E090E008958FEF87BB84BB81BB12BAF7
S113019020E04AEF63E085E00E94360026E04DEF60
S11301A063E085E00E94360026E04FEF63E085E0DF
S11301B00E94360027E041E063E085E00E943600BB
S11301C026E043E063E085E00E94360026E046E056
S11301D063E085E00E94360026E04AEF60E084E0B8
S11301E00E94360026E04DEF60E084E00E94360075
S11301F026E04FEF60E084E00E94360026E041E014
S113020060E084E00E94360027E043E060E084E0A0
S11302100E94360026E046E060E084E00E9436005A
S1090220FFCFF894FFCFAC
S9030000FC
